:020000040800F2
:10000000680800204D020008FB1D00087D1C000848
:10001000F91D000843040008251E00080000000028
:10002000000000000000000000000000031E0008A7
:10003000A504000800000000011E0008051E0008BD
:1000400067020008670200086702000867020008EC
:1000500067020008670200086702000867020008DC
:1000600067020008670200086702000867020008CC
:100070008D04000867020008990400086702000860
:100080006702000867020008670200085D040008B4
:1000900045040008510400086702000867020008D0
:1000A000670200086702000867020008670200088C
:1000B000670200086702000867020008670200087C
:1000C000670200086702000867020008670200086C
:1000D000670200086702000867020008191E00088E
:1000E000670200086702000867020008670200084C
:1000F000670200086702000867020008670200083C
:10010000670200086702000867020008670200082B
:10011000670200086702000867020008670200081B
:10012000670200086702000867020008670200080B
:1001300067020008670200086702000881040008DF
:1001400069040008750400086702000867020008D7
:1001500067020008670200086702000867020008DB
:1001600067020008670200086702000867020008CB
:10017000670200086702000867020008000000002C
:1001800067020008670200086702000867020008AB
:10019000670200086702000867020008670200089B
:1001A00000000000000000006702000800F002F8F4
:1001B00000F03CF80AA090E8000C82448344AAF1C5
:1001C0000107DA4501D100F031F8AFF2090EBAE8C3
:1001D0000F0013F0010F18BFFB1A43F0010318477B
:1001E0006822000088220000103A24BF78C878C135
:1001F000FAD8520724BF30C830C144BF04680C602D
:10020000704700000023002400250026103A28BF74
:1002100078C1FBD8520728BF30C148BF0B60704778
:100220001FB502F0FBF81FBD10B510BD00F0CFF8F0
:100230001146FFF7F5FF02F0CDF800F0EDF803B43A
:10024000FFF7F2FF03BC00F0F5F800000948804713
:1002500009480047FEE7FEE7FEE7FEE7FEE7FEE7A8
:10026000FEE7FEE7FEE7FEE704480549054A064BC0
:1002700070470000091E0008AD0100086802002058
:1002800068080020680400206804002053EA020C7B
:1002900000F069802DE9F04B4FF00006002B1FBFE6
:1002A000B3FA83F503FA05F424FA05F65E4012BFAB
:1002B0001643B2FA82F502FA05F4C5F120051EBF15
:1002C00022FA05FC44EA0C04203556EA044C4FEAB5
:1002D000144418BF641C4FF000084FF0000990420E
:1002E00071EB030C39D3002919BFB1FA81F701FA78
:1002F00007F6B0FA80F700FA07F6C7F120071EBF2D
:1003000020FA07FC46EA0C062037B6FBF4FCA7EB04
:100310000507103F07F01F0BCBF120060CFA0BFB73
:100320002CFA06F644BFB3460026202FA4BF5E4633
:100330004FF0000B5BEA060C08BF4FF0010B19EB06
:100340000B09ABFB027C48EB0608C01B06FB02CC8A
:100350000BFB03CC71EB0C01C1E70B460246414697
:100360004846BDE8F08B13B54FF000004FF0000198
:10037000AFF30080BDE81C4070474FF0000200B5AD
:10038000134694469646203922BFA0E80C50A0E8B8
:100390000C50B1F12001BFF4F7AF090728BFA0E866
:1003A0000C5048BF0CC05DF804EB890028BF40F832
:1003B000042B08BF704748BF20F8022B11F0804F74
:1003C00018BF00F8012B704770477047704775469B
:1003D00000F02CF8AE4605006946534620F00700B1
:1003E000854618B020B5FFF73FFFBDE820404FF02D
:1003F00000064FF000074FF000084FF0000B21F00F
:100400000701AC46ACE8C009ACE8C009ACE8C009DB
:10041000ACE8C0098D46704710B50446AFF30080C4
:100420002046BDE81040FFF70ABF000000487047B3
:100430000402002001491820ABBEFEE7260002009E
:100440007047FEE7014800F013B900006400002087
:10045000014800F00DB9000064000020014800F0E0
:1004600007B9000064000020014800F001B9000055
:100470008C000020014800F0FBB800008C00002038
:10048000014800F0F5B800008C000020014800F0A1
:10049000F9BB0000FC000020014800F0F3BB0000A5
:1004A0005C010020704772B6FEE7F0B590F820506E
:1004B0000468A468012D05D0022D03D0416A41F4DF
:1004C000802157E014F0406F01D1E5004FD5C4F30F
:1004D00001640125A5401D608D684FF4C0739DB176
:1004E000CE6835434E6845EAC605066803EB041737
:1004F000F5514FF4C275076805EB04150E697E517E
:10050000097D012905D009E00E88CD6845EA4655E8
:10051000EBE701684E5946F480764E511179D57952
:10052000567941EA056195792D0445EA0625294366
:100530004FF4C676056806EB0416A9511178D578F4
:1005400041EA0561957852782D0445EA022211436B
:100550004FF4C475026805EB04155151006803EBB4
:100560000411425842F0010242500020F0BD416A9D
:1005700041F4001141620120F0BD704770B590F860
:100580002040012C05D0022C03D0416A41F4802187
:1005900028E0046809B32469A40720D04FF4D87474
:1005A000056804EB01142D5915F0040595600568E4
:1005B0002D591AD0ED08556005682C5904F0020435
:1005C000D4604FF4DA74056804EB01142E5906F078
:1005D0000F06082E0CD308250DE0E468DCE7416A1D
:1005E00041F400114162012070BD6D0D1560E3E71B
:1005F0002D5905F00F05156105682D59C5F307251F
:10060000956105682C59240C54614FF4DC72046820
:1006100002EB0112A4581C700468A458240A5C70F0
:100620000468A458240C9C700468A258120EDA7056
:100630004FF4DE72046802EB0112A4581C710468C6
:10064000A458240A5C710468A458240C9C710468A2
:10065000A258120EDA71006829B1016941F0200137
:100660000161002070BDC16841F02001C160F8E760
:100670002DE9F05F0546006800244669D0F8049033
:100680008768D0F80CB0D0F810A0D0F81880F10727
:1006900048D0F90714D001218160B80703D5284656
:1006A00000F08FFA0CE0780702D54FF4006407E001
:1006B000380702D54FF4805402E0284600F080FA53
:1006C000F80516D529684FF480708860B80503D501
:1006D000284600F078FA0CE0780502D544F400547E
:1006E00007E0380502D544F4804402E0284600F0D3
:1006F00069FAF80316D529684FF480308860B8038A
:1007000003D5284600F061FA0CE0780302D544F4E2
:10071000004407E0380302D544F4803402E0284660
:1007200000F052FA300707D55FEACB6004D529689C
:10073000102044F40074C86070074FF0080707D514
:100740005FEA0B7004D52868C760284600F0BAF944
:10075000B00706D52868C068800702D0284600F098
:10076000B3F9700607D55FEACA6004D5296810207E
:1007700044F480640861B00607D55FEA0A7004D5C6
:1007800028680761284600F0C5F9F00606D52868F4
:100790000069800702D0284600F0BEF9B00308D5F2
:1007A0005FEAC96005D5296810204860284600F036
:1007B000D9F9F00307D55FEA097004D528684760C6
:1007C000284600F003FA300446D55FEA497040D568
:1007D000F00504D55FEAC87001D044F00104B0050B
:1007E00004D55FEA887001D544F00204700504D591
:1007F0005FEA487001D544F00404300529D518F0AB
:10080000700F26D008F07000402815D006DC1028A4
:1008100009D020280AD0302816D10AE050280ED05E
:10082000602811D10EE044F008040DE044F01004FB
:100830000AE044F0200407E044F0400404E044F0FF
:10084000800401E044F480742868816921F070011B
:100850008161296804204860002C05D0686A204323
:1008600068622846FFF789FEBDE8F09F70B5040076
:1008700003D094F8200010B104E0012070BD2046A0
:1008800000F082F82068016841F00101016000F089
:1008900065FC0546052604E000F060FC401B0A28C4
:1008A00011D820684068C007F6D02068016821F0A0
:1008B0000201016000F052FC05460BE000F04EFC26
:1008C000401B0A2806D9606A40F40030606284F850
:1008D0002060D2E7206840688007EFD4207E01289E
:1008E000206801683DD021F080010160607E012810
:1008F0002068016838D021F040010160A07E012805
:100900002068016833D021F020010160E07E0128D9
:10091000206801682ED041F010010160207F01287D
:100920002068016829D021F008010160607F01285A
:100930002068016824D021F004010160D4E902019B
:100940000843D4E90412114308436168491E08436F
:100950002168C86100206062012084F82000002026
:1009600070BD41F08001C0E741F04001C5E741F0B2
:100970002001CAE721F01001CFE741F00801D4E7D8
:1009800041F00401D9E70000F0B587B00446142116
:100990006846FFF7F2FC464B4648DFF810E119685D
:1009A000D4F800C0434A032502260927103000244A
:1009B000491CF44532D11960012907D1016841F081
:1009C00000710160006800F000700590106840F050
:1009D000080010601068CDE9005600F00800CDE96D
:1009E000047069463448CDE9024500F097FA0022C8
:1009F0001146132000F020FC132000F00FFC002211
:100A00001146142000F018FC142000F007FC00220E
:100A10001146152000F010FC152043E0DFF89CE0A3
:100A2000F44541D1D0F800C04CF0806CC0F800C053
:100A3000D0F800C001290CF0806CCDF814C019600A
:100A400007D1016841F000710160006800F000709A
:100A50000590106840F002001060106802AB00F0D2
:100A6000020005904FF44050CDE9000683E8B00045
:100A70006946134800F052FA002211463F2000F068
:100A8000DBFB3F2000F0CAFB00221146402000F0B3
:100A9000D3FB402000F0C2FB00221146412000F0B1
:100AA000CBFB412000F0BAFB07B0F0BD0064004072
:100AB0000000002030380240000C02400068004076
:100AC000000402407047000010B50E4A01680E4B4A
:100AD000914206D1A3F11C020021FFF74FFD0B4804
:100AE00009E00B4A91420CD1074A00211C3AFFF75A
:100AF00045FD0648083041680348BDE810401C38F1
:100B0000084710BD00640040D801002018000020F4
:100B1000006800407047000010B50E4A01680E4B97
:100B2000914206D1A3F11C020121FFF727FD0B48DA
:100B300009E00B4A91420CD1074A01211C3AFFF708
:100B40001DFD0648083041680348BDE810401C38C8
:100B5000084710BD00640040FC0100201800002080
:100B6000006800407047000070B5044690F820000F
:100B7000012804D0606A40F40020606218E002207E
:100B800084F820002068016821F00101016000F074
:100B9000E5FA05460EE000BF00F0E0FA401B0A2827
:100BA00008D9606A40F400306062052084F82000B3
:100BB000012070BD20684068C007EDD1606270BD43
:100BC00070477047704770477047704770472DE90E
:100BD000F0410446876D00F0C1FA064694F83500EE
:100BE0000025022806D08020606584F8345001205A
:100BF000BDE8F0812068016821F0160101602068DD
:100C0000416921F080014161206C08B9A06C20B1DC
:100C10002068016821F0080101602068016821F066
:100C2000010101600CE000F099FA801B052807D94A
:100C300020206065032084F8350084F83450D7E71D
:100C400020680068C007EED194F85C103F2088400F
:100C5000B860012084F8350084F834500020C7E7DC
:100C600090F83510022903D080214165012070479A
:100C7000052180F835100068016821F0010101604C
:100C8000002070472DE9F84304464FF00009CDF8E5
:100C9000009063484FF41651A56D0068B0FBF1F762
:100CA0002E6894F85C10082000FA01F131420FD050
:100CB00021680A6852070BD50A6822F004020A600C
:100CC00094F85C108840A860606D40F00100606599
:100CD00094F85C104FF0010808FA01F0304208D097
:100CE00021684969090604D5A860606D40F00200DA
:100CF000606594F85C1004208840304208D0216878
:100D00000968890704D5A860606D40F0040060653B
:100D100094F85C1010208840304218D0216809688F
:100D2000090714D5A86020680168490304D5006844
:100D3000000308D5A16C07E00168C90503D4016868
:100D400021F008010160216C09B12046884794F820
:100D50005C1020208840304231D021680968C906E3
:100D60002DD5A86094F8350005282068016806D0C4
:100D7000490347D5006800031DD4616C1CE021F0D5
:100D8000160101602068416921F080014161206CF9
:100D900008B9A06C20B12068016821F00801016049
:100DA00094F85C103F208840A86084F8358084F86F
:100DB0003490216D1FE0E16B09B120468847606DDA
:100DC00000282BD0606DC00714D0052084F83500B2
:100DD0002068016821F0010101600098401C00902A
:100DE000B84203D820680068C007F6D184F835807F
:100DF00084F83490E16C002910D001B02046BDE8A1
:100E0000F04308470168C905D5D4016821F01001F5
:100E1000016084F8358084F83490CCE7BDE8F8832D
:100E2000100000202DE9F041044600F097F9064635
:100E30005CB1022084F83500002584F83450206825
:100E4000016821F0010101600DE00120BDE8F081A1
:100E500000F084F9801B052805D920206065032057
:100E600084F83500F2E720680068C007F0D12268F6
:100E7000116820480140D4E901031843D4E903363E
:100E80003343184363691843A3691843E36918435C
:100E9000236A18430843616A042903D1D4E90B1378
:100EA00019430843106020684069666A20F0070112
:100EB00030460E43012704280CD1A06A0643E06A9D
:100EC00040B1204601F022F920B14020606584F84D
:100ED0003570BAE720684661204601F041F994F880
:100EE0005C203F2191408160656584F83570002069
:100EF000ACE700003F8010F070B5044600F02EF91A
:100F00000546601C02D004480078044400F026F92D
:100F1000401BA042FAD370BD040000202DE9F84F19
:100F2000DFF8F8A10022012403254FF00F090AF190
:100F3000040BAAF1040E00BF0B6804FA02F633405A
:100F4000B34270D10F7907F00307012F01D0022FB0
:100F500016D187684FEA420805FA08FC27EA0C0711
:100F6000D1F80CC00CFA08FC4CEA070CC0F808C019
:100F70004768B7430E79C6F3001696403E43466075
:100F80000E79F643B6070AD0C7684FEA420C05FA55
:100F90000CF6B7438E6806FA0CF63E43C6600E792F
:100FA00006F00306022E10D1D60800EB8608D8F80A
:100FB000206057074FEAD76C09FA0CF7BE430F6958
:100FC00007FA0CF73743C8F8207006684FEA420C5E
:100FD00005FA0CF7BE430F7907F0030707FA0CF781
:100FE000374307604E6816F4403F1CD04C4E3768BC
:100FF00047F480473760366822F0030706F48046DE
:101000000096484E07EB060CDCF8086897073F0F80
:1010100009FA07F826EA0806DFF80C81404503D1F3
:101020004FF0000841E072E0DFF80081404502D156
:101030004FF0010839E0DFF8F880404502D14FF069
:10104000020832E0DFF8EC80404502D14FF003089F
:101050002BE0DFF8E480404502D14FF0040824E0A3
:10106000DFF8D880404502D14FF005081DE0DFF8D9
:10107000D080404502D14FF0060816E0DFF8C4806A
:10108000404502D14FF007080FE0DFF8BC80404533
:1010900002D14FF0080808E0DFF8B080404502D1E7
:1010A0004FF0090801E04FF00A0808FA07F848EA8B
:1010B0000608CCF80888DAF800605746D1F804C072
:1010C0009E435FEACC2C00D51E433E60DBF80060F7
:1010D0005F46D1F804C09E435FEA8C2C00D51E43C6
:1010E0003E60DEF800607746D1F804C09E435FEAB8
:1010F0008C3C00D51E433E60084F083F3E68D1F847
:1011000004C09E435FEACC3C00D51E433E60521CA7
:10111000102AFFF411AFBDE8F88F0000083C014031
:101120004438024000300140000002400004024008
:1011300000080240000C024000100240001402406F
:1011400000180240001C024000200240002402401F
:101150000AB1816170470904FBE70000014880681B
:1011600070470000040000200248816802781144A2
:1011700081607047040000200B4810B5016841F4FD
:1011800000710160016841F480610160016841F40F
:1011900080710160032000F06FF80F2000F006F866
:1011A00000F024F8002010BD003C024070B50D4D49
:1011B00004464FF47A712878B1FBF0F00A490968C7
:1011C000B1FBF0F000F05AFB48B9102C07D2002216
:1011D0002146501E00F030F800206C6070BD0120E8
:1011E00070BD000004000020100000200A4808B56F
:1011F000016841F480410160006800F48040009083
:101200000548001F016841F080510160006800F04E
:101210008050009008BD000044380240002809DBDF
:1012200000F01F02012191404009800000F1E02000
:10123000C0F8001170470000F0B40E4B1B680C465C
:10124000C3F30223C3F10705042D00D90425191D9A
:10125000072901D2002300E0DB1E012606FA05F172
:10126000491E214099409E40761E16403143F0BCF5
:1012700001F09FB80CED00E0064900F00702086895
:101280004FF6FF03184040EA0220034A104308606B
:10129000704700000CED00E00000FA052DE9F8436E
:1012A0001748016841F0805101600068154F00F057
:1012B0008050012600903E64FFF750FF05464FF432
:1012C0007A78114C05E000BFFFF748FF401B40450E
:1012D0000DD86068C003F7D57E64FFF73FFF054671
:1012E000464607E0FFF73AFF401BB04202D9032011
:1012F000BDE8F88360688003F4D50020F8E70000BB
:101300004038024000000E4200700040704700006C
:101310002DE9F0470E46050065D0DFF81481D8F8B6
:101320000000F7B200F00F00B04207D288F800705A
:10133000D8F8000000F00F00B04254D128683D4CAE
:10134000810712D5400703D5206840F4E0502060A3
:101350002878000703D5206840F4604020602068AA
:10136000A96820F0F000084320602878C0072DD03D
:10137000304968680839012812D0022813D00328A0
:1013800011D00968890700292DDA216821F00301AD
:1013900001432160FFF7E2FE814641F2883A0EE008
:1013A00009688903EFE709688901ECE7FFF7D6FED2
:1013B000A0EB0901514502D90320BDE8F087206860
:1013C000696800F00C00B0EB810FEFD1D8F8001085
:1013D000404601F00F01B14207D90770006800F0E4
:1013E0000F00B04201D00120E7E72878400705D57B
:1013F0002068E96820F4E05008432060287800075E
:1014000006D52068296920F4604040EAC1002060C8
:1014100000F03EF82168084AC1F30311515CC8404E
:101420000649086006480068FFF7C0FE0020C4E7D0
:10143000003C0240083802402E2400081000002022
:101440000800002001490120C8647047000047429D
:101450000448054900680968044AC1F38221515CC7
:10146000C840704710000020083802403E240008A1
:101470000448054900680968044AC1F34231515CD7
:10148000C840704710000020083802403E24000881
:10149000154810B5006810F00C02144813D0144918
:1014A000042A0FD0082A0ED10F4C241F226823686B
:1014B00002F03F025B0207D52068C0F38810A0FB52
:1014C000010106E0084610BD2168C1F38811A1FBA7
:1014D00000010023FEF7DAFE2168C1F30141491C37
:1014E0004900B0FBF1F010BD083802400024F400C0
:1014F000001BB700054810B50068000605D5FFF7CA
:1015000005FF02498020891C087010BD0C3802407C
:101510002DE9F84F04006ED02078DFF84C93C00717
:10152000A9F104054AD009F104000168C1F3810161
:10153000012908D00068C0F3810002280AD1D9F837
:101540000000400206D52868800337D5606800286F
:10155000E1D033E06068B0F5803F10D0B0F5A02F47
:10156000286810D020F480302860286820F480207B
:1015700028606068A8B1FFF7F1FD06460DE0286815
:1015800040F48030F4E740F480202860F7E700BFA3
:10159000FFF7E4FD801B642873D828688003F7D523
:1015A0000CE0FFF7DBFD064605E000BFFFF7D6FDC8
:1015B000801B6428F0D828688003F7D42078DFF8EF
:1015C000AC8280074FF0000A3ED5A748001D016895
:1015D00011F00C0F08D00068C0F3810002280BD175
:1015E000D9F80000400207D42868800716D5E068C3
:1015F000012800D112E033E1E068B8B10120C8F859
:101600000000FFF7ABFD064605E000BFFFF7A6FDB3
:10161000801B0228C0D828688007F7D52868216970
:1016200020F0F80040EAC10028600DE0C8F800A0F2
:10163000FFF794FD064604E0FFF790FD801B0228AB
:101640001FD828688007F7D42078000722D5864F56
:1016500087486169703771B101210160FFF77EFD34
:10166000064604E0FFF77AFD801B022809D8386897
:101670008007F7D50EE0C0F800A0FFF76FFD064623
:1016800005E082E0FFF76AFD801B02287DD83868FC
:101690008007F7D42078400768D5DFF8CCB1002761
:1016A0000BF13C0BDBF80000C0000BD4DBF80010A2
:1016B00041F08051CBF80010DBF80000012700F06A
:1016C000805000906B4E3068C00510D4306840F4F4
:1016D00080703060FFF742FD009005E0FFF73EFDAF
:1016E0000099401A022850D83068C005F6D55E4EE1
:1016F000A0686C3601280FD00528306810D020F083
:1017000001003060306820F004003060A068B8B19B
:10171000FFF724FD00900FE0306840F00100F4E78F
:1017200040F004003060F7E7FFF718FD0099411A18
:1017300041F28830814266D830688007F4D50EE0E7
:10174000FFF70CFD009007E0FFF708FD0099411A34
:1017500041F28830814256D830688007F4D42FB1E6
:10176000DBF8001021F08051CBF80010A069C8B35D
:101770003D49091D0968C1F3810102294AD00228A7
:10178000504607D0C8F8600000E03CE0FFF7E6FCF8
:1017900004463BE04746C8F86000FFF7DFFC06461A
:1017A00005E000BFFFF7DAFC801B02282BD8286871
:1017B0008001F7D4D4E907010843A16A2E4A4908F9
:1017C00002EB0141626A41EA8211084394F82C104D
:1017D00040EA0161C9F8001001203866FFF7BEFC3D
:1017E000044606E03EE000BFFFF7B8FC001B0228FD
:1017F00009D828688001F7D534E000BFFFF7AEFCB8
:10180000001B022802D90320BDE8F88F2868800158
:10181000F4D427E00128F7D0D9F80000E26900F4F9
:10182000800191421CD1226A00F03F01914217D100
:1018300047F6C071626A0140B1EB821F10D1A26A03
:101840004FF0FF3300F4403103EB5202B1EB024F93
:1018500006D194F82C1000F07060B0EB016F01D04D
:101860000120D1E70020CFE70438024000004742C2
:10187000800E4742007000400000FFFF10B5401E80
:10188000B0F1807F01D3012010BD4FF0E0246061F2
:101890000F21601700F08DFD0020A061072020615E
:1018A000002010BD70477047F8B50168044608680D
:1018B000CA684B6910F00F0F4FF0000559D003F0C4
:1018C000010602F49077374365D0C10705D0D105F2
:1018D00003D5616C41F001016164410705D5D90769
:1018E00003D0616C41F002016164810705D5D9071D
:1018F00003D0616C41F004016164010707D502F077
:101900002001314303D0616C41F008016164616CD6
:1019100000293AD0800604D5900602D5204600F072
:10192000B9FC20684069616CC0F38010090700D4DD
:1019300060B3204600F00FFD20684069400621D5C5
:101940002068143050E8001F21F0400140E80012E8
:10195000002AF5D1E06BA8B172490165E06BFFF791
:101960007FF9002811D0E06B016D01B0BDE8F040B7
:10197000084783060FD593060DD52046BDE8F840ED
:1019800000F088BC2046FFF78EFFF8BD2046FFF729
:101990008AFF6564F8BD266B2023012E7ED1C60622
:1019A0007CD5D6067AD508684868009048694FF01B
:1019B000020640064DD5E26B106840684FF4807710
:1019C0000004000C3AD0A18D814237D9E085D0695E
:1019D000B8422DD020680C3050E8001F21F48071EF
:1019E00040E80012002AF5D12068143050E8001FAA
:1019F00021F0010140E80012002AF5D120681430DE
:101A000050E8001F21F0400140E80012002AF5D103
:101A100084F84230256320680C3050E8001F21F024
:101A2000100140E80012002AF5D1E06BFFF7CFF873
:101A30006663A08DE18D401A81B206E0A18D8142DE
:101A4000A8D1D069B842A5D166632046FFF72AFF26
:101A5000F8BDA08DE18D401A81B2E08D0028F7D04D
:101A60000029F5D020680C3050E8002F22F4907245
:101A700040E80027002FF5D12068143050E8002FEF
:101A800022F0010240E80027002FF5D184F842300F
:101A9000256320680C3050E8002F00E006E022F0BB
:101AA000100240E80023002BF3D1CDE705062BD52B
:101AB000150629D594F841002128C9D1A068B0F5B0
:101AC000805F01D12069B0B1206A411C2162216888
:101AD00000784860E08C401E0004000CE084B7D120
:101AE0002068C16821F08001C1602068C16841F0B0
:101AF0004001C160F8BD206A0088C0F3080048605A
:101B0000206A801C2062E5E74006F3D55006F1D537
:101B1000CA68204622F04002CA6084F8413000F0D2
:101B2000ACF8F8BDA523000870B5040004D094F803
:101B30004100002510B106E0012070BD84F840503E
:101B4000204600F023F8242084F841002068C16872
:101B500021F40051C160204600F016FB20680169A5
:101B600021F4904101612068416921F02A0141611D
:101B70002068C16841F40051C1606564202084F888
:101B8000410084F842006563002070BD2DE9F043F8
:101B900087B0064614216846FEF7EFFB31493068EE
:101BA00088425BD130480024016841F48021016003
:101BB000006800F4802005902B481038016841F03F
:101BC000080101600068694600F0080005904FF4C4
:101BD000407000900220CDE901040320039007200B
:101BE00004902248FFF79AF9224D21484FF00067F0
:101BF0002860C5E901744FF48068C5E903486C6149
:101C00004FF40039AC61C5E9074928466C62FFF71B
:101C100009F908B1FEF747FCF563AE63154D1448AA
:101C200060353030E5E802074020A5E81101114891
:101C300045F814496030AC61C5E907496C62FFF7AB
:101C4000F1F808B1FEF72FFCB563002211462720FA
:101C5000AE63FFF7F1FA2720FFF7E0FA07B0BDE81F
:101C6000F08300000048004040380240000C024071
:101C700028600240FC00002070477047FEE700002B
:101C80000F4810B50D4901600921416000214FF452
:101C900080328160C0E9031212014261017641760F
:101CA0008176C17601774177FEF7E0FD002803D009
:101CB000BDE81040FEF7F7BB10BD00000064004017
:101CC000640000200F4810B50D49016009214160F2
:101CD00000214FF480328160C0E903121201426199
:101CE000017641768176C17601774177FEF7BEFDB8
:101CF000002803D0BDE81040FEF7D5BB10BD0000A2
:101D0000006800408C0000200D4808B5016841F4CF
:101D1000001101600068002200F4001000901146DC
:101D20000C20FFF789FA0C20FFF778FA0022114601
:101D30000E20FFF781FABDE808400E20FFF76EBACB
:101D40003038024030B587B014216846FEF715FBE5
:101D500019480024016841F001010160016801F0A7
:101D600001010591016841F008010160016801F07D
:101D700008010591016841F080010160016801F0EE
:101D800080010591016841F00201016000680B4D7E
:101D900000F00200059000223C212846FFF7D8F908
:101DA0003C2000900120CDE90104694628460394B7
:101DB000FFF7B4F807B030BD30380240001C0240D5
:101DC0000C4810B50A4901604FF4E131416000212F
:101DD00081600C22C160C0E904128161C161FFF71A
:101DE000A3FE002803D0BDE81040FEF75CBB10BD89
:101DF00000480040B4000020FEE7FFF77BFBFEE751
:101E000070477047FFF7B0B90248016841F47001AC
:101E10000160704788ED00E00148FFF745BD000014
:101E2000B4000020FEE70000024610210148FFF741
:101E30008FB90000001C0240024620210148FFF734
:101E400087B90000001C0240024604210148FFF748
:101E50007FB90000001C0240024608210148FFF73C
:101E600077B90000001C024000B587B00091002146
:101E700001910291CDE9031306AB6946FEF715FB0C
:101E800007B000BD7047000030B593B03021684600
:101E9000FEF773FA14210CA8FEF76FFA1F4800250D
:101EA000016841F080510160006800F0805011909D
:101EB0001B48016841F4404101600068022400F4BD
:101EC0004040119001200090000401908001CDE974
:101ED000064006200890B420CDE9090404200B90A8
:101EE0006846FFF715FB08B172B6FEE7FFF7D6F9B3
:101EF00008B172B6FEE70CA90F2081E831004FF45B
:101F0000A0500F90109005210CA8FFF701FA08B11E
:101F100072B6FEE7FFF796FA13B030BD40380240C4
:101F20000070004010B5044600F00100FFF784FF88
:101F3000C4F34000FFF778FFC4F38000FFF78CFF85
:101F4000C4F3C000FFF780FF44F30010401C00F012
:101F5000D5F844F34010401C00F0C8F844F380105A
:101F6000401C00F083F844F3C010401C00F086F8D9
:101F700044F30020401C00F089F844F34020401C4A
:101F800000F08CF844F38020401C00F08FF844F3FC
:101F9000C020401C00F092F844F30030401C00F0D8
:101FA00095F844F34030BDE81040401C00F096B86E
:101FB00070B50D460446FEF7D7FD2068416941F033
:101FC000020141612068416941F010014161074906
:101FD0002068884201D1064804E00649884203D1BE
:101FE00003480830C0E9004570BD000000640040AF
:101FF00018000020006800402DE9F041174D4FF413
:102000000076174C4FF47A770DE032302080010AC9
:10201000297068700823114A31461248FFF724FFDF
:102020003220FEF769FFB4F90000B842EDDB0E4F35
:10203000B4F90000B8420EDD32382080010A297060
:1020400068700823054A31460648FFF70DFF322025
:10205000FEF752FFECE7BDE8F08100003000002001
:10206000600000206400002018FCFFFF02460221EF
:102070000148FFF76DB80000001802400246042135
:102080000148FFF765B80000001802400246082129
:102090000148FFF75DB80000001802400246102119
:1020A0000148FFF755B80000001802400246202101
:1020B0000148FFF74DB800000018024002464021D9
:1020C0000148FFF745B80000001802400246802191
:1020D0000148FFF73DB800000018024002464FF4E7
:1020E00080710148FFF734B80018024002464FF4EF
:1020F00080410148FFF72CB80014024002464FF41B
:1021000000610148FFF724B80010024010B50146F5
:1021100000208B698A6A4FF0C07453B1B3F5005F39
:1021200015D072B1012A0CD0022A0AD0032A09D193
:1021300004E01AB1012A06D0022A03D1C96AC901F2
:1021400000D5012010BDC96AA142FAD010BD002AF5
:10215000F7D0012AF2D0022AF3D0032AF3D010BD1F
:1021600001681823CAB2103AB2FBF3F2054B6FF3C1
:102170000901032A9B5CC36500D9091D81650846D6
:10218000704700002624000870B504460068016905
:10219000E26821F44051114301612169A068E269BC
:1021A00008436169114308432168CA6849F20C6316
:1021B0009A430243CA6020684169A26921F44071D0
:1021C0001143416131492068884202D03049884238
:1021D00002D1FFF74DF901E0FFF73AF9E269002378
:1021E000192164253226B2F5004F626828D0A0FB81
:1021F0000101930F9200FEF749F80146B0FBF5F09C
:102200006FF01802504301EB800006EB0010B0FBAA
:10221000F5F000F0F002B1FBF5F002EB0012B1FBBB
:10222000F5F06FF01803584301EB800006EB001047
:10223000B0FBF5F000F00F0021681044886070BD1D
:10224000A0FB010192185B41FEF720F80146B0FBAC
:10225000F5F00201B1FBF5F06FF01803584301EB04
:10226000800006EBC000B0FBF5F000F0F80002EBD8
:102270004002B1FBF5F0584301EB800006EBC000D3
:10228000B0FBF5F000F00700D6E7000000100140B9
:102290000014014008B590F84210222901D0022014
:1022A00008BD82684FF480539A4201D1016921B17F
:1022B000816A9A421BD04AB10AE00268816A526878
:1022C000C2F308020A80816A891C08E0026972B1BF
:1022D0000268526802F07F020A70816A491C8162BA
:1022E000C18D491E0904090CC18503D01BE0026899
:1022F0005268F1E70168CA6822F02002CA600168EA
:10230000CA6822F48072CA6001684A6922F0010238
:102310004A61202180F8421000214163026B012AAA
:1023200003D0FFF7A9FC002008BD016301680C3150
:1023300051E8002F22F0100241E80023002BF5D1D4
:1023400001680A68D20602D50A6849680091818D41
:10235000FFF7A8FAE7E701680C3151E8002F22F4F3
:10236000907241E80023002BF5D10168143151E847
:10237000002F22F0010241E80023002BF5D1016B70
:10238000012909D101680C3151E8002F22F0100217
:1023900041E80023002BF5D1202180F842100021D4
:1023A0000163704710B5806B0021C185FFF77BFA90
:1023B00010BD0907090E002804DB00F1E02080F8B9
:1023C0000014704700F00F0000F1E02080F8141DA9
:1023D00070470000FEF7D0FEFFF756FDFFF7B2FC96
:1023E000FFF792FCFFF74CFCFFF76CFCFFF7E8FCF3
:1023F0009FED070A0F20F0EE400AFFF793FD054915
:102400000548FFF7D5FD00BFFFF7F6FDFCE700002C
:1024100000000000851E0008640000204FF040709E
:10242000E1EE100A704700061016000610160000B4
:102430000000000000000102030406070809000074
:1024400000000102030400006824000800000020CE
:1024500064000000E8010008CC24000864000020AB
:102460000408000004020008000000000100000051
:1024700010000000000000000024F4000000000034
:10248000000000000000000000000000000000004C
:10249000000000000000000000000000000000003C
:1024A000000000000000000000000000000000002C
:1024B000000000000000000000000000000000001C
:0C24C00000000000000000000000000010
:04000005080001AD41
:00000001FF
